{
  "address": "0xcD12A40b154788FfFf0F1B23AF4CDF6781102067",
  "abi": [
    {
      "inputs": [
        {
          "internalType": "string",
          "name": "_name",
          "type": "string"
        },
        {
          "internalType": "string",
          "name": "_symbol",
          "type": "string"
        },
        {
          "internalType": "uint8",
          "name": "_decimals",
          "type": "uint8"
        },
        {
          "internalType": "uint256",
          "name": "_initialSupply",
          "type": "uint256"
        }
      ],
      "stateMutability": "nonpayable",
      "type": "constructor"
    },
    {
      "anonymous": false,
      "inputs": [
        {
          "indexed": true,
          "internalType": "address",
          "name": "owner",
          "type": "address"
        },
        {
          "indexed": true,
          "internalType": "address",
          "name": "spender",
          "type": "address"
        },
        {
          "indexed": false,
          "internalType": "uint256",
          "name": "value",
          "type": "uint256"
        }
      ],
      "name": "Approval",
      "type": "event"
    },
    {
      "anonymous": false,
      "inputs": [
        {
          "indexed": true,
          "internalType": "address",
          "name": "from",
          "type": "address"
        },
        {
          "indexed": true,
          "internalType": "address",
          "name": "to",
          "type": "address"
        },
        {
          "indexed": false,
          "internalType": "uint256",
          "name": "value",
          "type": "uint256"
        }
      ],
      "name": "Transfer",
      "type": "event"
    },
    {
      "inputs": [
        {
          "internalType": "address",
          "name": "_owner",
          "type": "address"
        },
        {
          "internalType": "address",
          "name": "spender",
          "type": "address"
        }
      ],
      "name": "allowance",
      "outputs": [
        {
          "internalType": "uint256",
          "name": "",
          "type": "uint256"
        }
      ],
      "stateMutability": "view",
      "type": "function"
    },
    {
      "inputs": [
        {
          "internalType": "address",
          "name": "spender",
          "type": "address"
        },
        {
          "internalType": "uint256",
          "name": "amount",
          "type": "uint256"
        }
      ],
      "name": "approve",
      "outputs": [
        {
          "internalType": "bool",
          "name": "",
          "type": "bool"
        }
      ],
      "stateMutability": "nonpayable",
      "type": "function"
    },
    {
      "inputs": [
        {
          "internalType": "address",
          "name": "account",
          "type": "address"
        }
      ],
      "name": "balanceOf",
      "outputs": [
        {
          "internalType": "uint256",
          "name": "",
          "type": "uint256"
        }
      ],
      "stateMutability": "view",
      "type": "function"
    },
    {
      "inputs": [],
      "name": "decimals",
      "outputs": [
        {
          "internalType": "uint8",
          "name": "",
          "type": "uint8"
        }
      ],
      "stateMutability": "view",
      "type": "function"
    },
    {
      "inputs": [
        {
          "internalType": "address",
          "name": "account",
          "type": "address"
        }
      ],
      "name": "mint",
      "outputs": [
        {
          "internalType": "bool",
          "name": "",
          "type": "bool"
        }
      ],
      "stateMutability": "payable",
      "type": "function"
    },
    {
      "inputs": [],
      "name": "mintAmount",
      "outputs": [
        {
          "internalType": "uint256",
          "name": "",
          "type": "uint256"
        }
      ],
      "stateMutability": "view",
      "type": "function"
    },
    {
      "inputs": [],
      "name": "mintingFee",
      "outputs": [
        {
          "internalType": "uint256",
          "name": "",
          "type": "uint256"
        }
      ],
      "stateMutability": "view",
      "type": "function"
    },
    {
      "inputs": [],
      "name": "name",
      "outputs": [
        {
          "internalType": "string",
          "name": "",
          "type": "string"
        }
      ],
      "stateMutability": "view",
      "type": "function"
    },
    {
      "inputs": [],
      "name": "owner",
      "outputs": [
        {
          "internalType": "address",
          "name": "",
          "type": "address"
        }
      ],
      "stateMutability": "view",
      "type": "function"
    },
    {
      "inputs": [],
      "name": "symbol",
      "outputs": [
        {
          "internalType": "string",
          "name": "",
          "type": "string"
        }
      ],
      "stateMutability": "view",
      "type": "function"
    },
    {
      "inputs": [],
      "name": "totalSupply",
      "outputs": [
        {
          "internalType": "uint256",
          "name": "",
          "type": "uint256"
        }
      ],
      "stateMutability": "view",
      "type": "function"
    },
    {
      "inputs": [
        {
          "internalType": "address",
          "name": "recipient",
          "type": "address"
        },
        {
          "internalType": "uint256",
          "name": "amount",
          "type": "uint256"
        }
      ],
      "name": "transfer",
      "outputs": [
        {
          "internalType": "bool",
          "name": "",
          "type": "bool"
        }
      ],
      "stateMutability": "nonpayable",
      "type": "function"
    },
    {
      "inputs": [
        {
          "internalType": "address",
          "name": "sender",
          "type": "address"
        },
        {
          "internalType": "address",
          "name": "recipient",
          "type": "address"
        },
        {
          "internalType": "uint256",
          "name": "amount",
          "type": "uint256"
        }
      ],
      "name": "transferFrom",
      "outputs": [
        {
          "internalType": "bool",
          "name": "",
          "type": "bool"
        }
      ],
      "stateMutability": "nonpayable",
      "type": "function"
    }
  ],
  "transactionHash": "0xe3e0e70e957b31d6844588ecf3ccc100f9d037789d1a7caee7480ded5af9c41e",
  "args": [
    "Tandil",
    "TNDL",
    18,
    "100000000000000000000"
  ],
  "numDeployments": 1,
  "solcInputHash": "ca0c1d883782ee584007033400bf3c65",
  "bytecode": "0x60806040523480156200001157600080fd5b506040516200109c3803806200109c833981016040819052620000349162000265565b60006200004285826200037f565b5060016200005184826200037f565b506002805460ff191660ff8416908117909155670de0b6b3a76400006004556200007d90600a62000560565b6200008a90600162000575565b600555600680546001600160a01b03191633908117909155620000ae9082620000b8565b50505050620005a5565b6001600160a01b038216620001135760405162461bcd60e51b815260206004820152601f60248201527f45524332303a206d696e7420746f20746865207a65726f206164647265737300604482015260640160405180910390fd5b80600360008282546200012791906200058f565b90915550506001600160a01b03821660009081526007602052604081208054839290620001569084906200058f565b90915550506040518181526001600160a01b038316906000907fddf252ad1be2c89b69c2b068fc378daa952ba7f163c4a11628f55a4df523b3ef9060200160405180910390a35050565b634e487b7160e01b600052604160045260246000fd5b600082601f830112620001c857600080fd5b81516001600160401b0380821115620001e557620001e5620001a0565b604051601f8301601f19908116603f01168101908282118183101715620002105762000210620001a0565b816040528381526020925086838588010111156200022d57600080fd5b600091505b8382101562000251578582018301518183018401529082019062000232565b600093810190920192909252949350505050565b600080600080608085870312156200027c57600080fd5b84516001600160401b03808211156200029457600080fd5b620002a288838901620001b6565b95506020870151915080821115620002b957600080fd5b50620002c887828801620001b6565b935050604085015160ff81168114620002e057600080fd5b6060959095015193969295505050565b600181811c908216806200030557607f821691505b6020821081036200032657634e487b7160e01b600052602260045260246000fd5b50919050565b601f8211156200037a57600081815260208120601f850160051c81016020861015620003555750805b601f850160051c820191505b81811015620003765782815560010162000361565b5050505b505050565b81516001600160401b038111156200039b576200039b620001a0565b620003b381620003ac8454620002f0565b846200032c565b602080601f831160018114620003eb5760008415620003d25750858301515b600019600386901b1c1916600185901b17855562000376565b600085815260208120601f198616915b828110156200041c57888601518255948401946001909101908401620003fb565b50858210156200043b5787850151600019600388901b60f8161c191681555b5050505050600190811b01905550565b634e487b7160e01b600052601160045260246000fd5b600181815b80851115620004a25781600019048211156200048657620004866200044b565b808516156200049457918102915b93841c939080029062000466565b509250929050565b600082620004bb575060016200055a565b81620004ca575060006200055a565b8160018114620004e35760028114620004ee576200050e565b60019150506200055a565b60ff8411156200050257620005026200044b565b50506001821b6200055a565b5060208310610133831016604e8410600b841016171562000533575081810a6200055a565b6200053f838362000461565b80600019048211156200055657620005566200044b565b0290505b92915050565b60006200056e8383620004aa565b9392505050565b80820281158282048414176200055a576200055a6200044b565b808201808211156200055a576200055a6200044b565b610ae780620005b56000396000f3fe6080604052600436106100c25760003560e01c80635a64ad951161007f5780638da5cb5b116100595780638da5cb5b1461020257806395d89b411461023a578063a9059cbb1461024f578063dd62ed3e1461026f57600080fd5b80635a64ad95146101a35780636a627842146101b957806370a08231146101cc57600080fd5b806306fdde03146100c7578063095ea7b3146100f257806318160ddd1461012257806323b872dd14610141578063313ce567146101615780635a2bcc181461018d575b600080fd5b3480156100d357600080fd5b506100dc6102b5565b6040516100e9919061088d565b60405180910390f35b3480156100fe57600080fd5b5061011261010d3660046108f7565b610343565b60405190151581526020016100e9565b34801561012e57600080fd5b506003545b6040519081526020016100e9565b34801561014d57600080fd5b5061011261015c366004610921565b610411565b34801561016d57600080fd5b5060025461017b9060ff1681565b60405160ff90911681526020016100e9565b34801561019957600080fd5b5061013360055481565b3480156101af57600080fd5b5061013360045481565b6101126101c736600461095d565b610644565b3480156101d857600080fd5b506101336101e736600461095d565b6001600160a01b031660009081526007602052604090205490565b34801561020e57600080fd5b50600654610222906001600160a01b031681565b6040516001600160a01b0390911681526020016100e9565b34801561024657600080fd5b506100dc6106bc565b34801561025b57600080fd5b5061011261026a3660046108f7565b6106c9565b34801561027b57600080fd5b5061013361028a36600461097f565b6001600160a01b03918216600090815260086020908152604080832093909416825291909152205490565b600080546102c2906109b2565b80601f01602080910402602001604051908101604052809291908181526020018280546102ee906109b2565b801561033b5780601f106103105761010080835404028352916020019161033b565b820191906000526020600020905b81548152906001019060200180831161031e57829003601f168201915b505050505081565b60006001600160a01b0383166103ab5760405162461bcd60e51b815260206004820152602260248201527f45524332303a20617070726f766520746f20746865207a65726f206164647265604482015261737360f01b60648201526084015b60405180910390fd5b3360008181526008602090815260408083206001600160a01b03881680855290835292819020869055518581529192917f8c5be1e5ebec7d5bd14f71427d1e84f3dd0314c0f7b2291e5b200ac8c7c3b92591015b60405180910390a35060015b92915050565b60006001600160a01b0384166104775760405162461bcd60e51b815260206004820152602560248201527f45524332303a207472616e736665722066726f6d20746865207a65726f206164604482015264647265737360d81b60648201526084016103a2565b6001600160a01b03831661049d5760405162461bcd60e51b81526004016103a2906109ec565b6001600160a01b0384166000908152600760205260409020548211156104d55760405162461bcd60e51b81526004016103a290610a2f565b6001600160a01b03841660009081526008602090815260408083203384529091529020548211156105595760405162461bcd60e51b815260206004820152602860248201527f45524332303a207472616e7366657220616d6f756e74206578636565647320616044820152676c6c6f77616e636560c01b60648201526084016103a2565b6001600160a01b03841660009081526007602052604081208054849290610581908490610a8b565b90915550506001600160a01b038316600090815260076020526040812080548492906105ae908490610a9e565b90915550506001600160a01b0384166000908152600860209081526040808320338452909152812080548492906105e6908490610a8b565b92505081905550826001600160a01b0316846001600160a01b03167fddf252ad1be2c89b69c2b068fc378daa952ba7f163c4a11628f55a4df523b3ef8460405161063291815260200190565b60405180910390a35060019392505050565b600060045434146106a85760405162461bcd60e51b815260206004820152602860248201527f45524332303a2076616c756520646f65736e2774206d6174636820746f206d696044820152676e74696e6746656560c01b60648201526084016103a2565b6106b4826005546107ae565b506001919050565b600180546102c2906109b2565b60006001600160a01b0383166106f15760405162461bcd60e51b81526004016103a2906109ec565b336000908152600760205260409020548211156107205760405162461bcd60e51b81526004016103a290610a2f565b336000908152600760205260408120805484929061073f908490610a8b565b90915550506001600160a01b0383166000908152600760205260408120805484929061076c908490610a9e565b90915550506040518281526001600160a01b0384169033907fddf252ad1be2c89b69c2b068fc378daa952ba7f163c4a11628f55a4df523b3ef906020016103ff565b6001600160a01b0382166108045760405162461bcd60e51b815260206004820152601f60248201527f45524332303a206d696e7420746f20746865207a65726f20616464726573730060448201526064016103a2565b80600360008282546108169190610a9e565b90915550506001600160a01b03821660009081526007602052604081208054839290610843908490610a9e565b90915550506040518181526001600160a01b038316906000907fddf252ad1be2c89b69c2b068fc378daa952ba7f163c4a11628f55a4df523b3ef9060200160405180910390a35050565b600060208083528351808285015260005b818110156108ba5785810183015185820160400152820161089e565b506000604082860101526040601f19601f8301168501019250505092915050565b80356001600160a01b03811681146108f257600080fd5b919050565b6000806040838503121561090a57600080fd5b610913836108db565b946020939093013593505050565b60008060006060848603121561093657600080fd5b61093f846108db565b925061094d602085016108db565b9150604084013590509250925092565b60006020828403121561096f57600080fd5b610978826108db565b9392505050565b6000806040838503121561099257600080fd5b61099b836108db565b91506109a9602084016108db565b90509250929050565b600181811c908216806109c657607f821691505b6020821081036109e657634e487b7160e01b600052602260045260246000fd5b50919050565b60208082526023908201527f45524332303a207472616e7366657220746f20746865207a65726f206164647260408201526265737360e81b606082015260800190565b60208082526026908201527f45524332303a207472616e7366657220616d6f756e7420657863656564732062604082015265616c616e636560d01b606082015260800190565b634e487b7160e01b600052601160045260246000fd5b8181038181111561040b5761040b610a75565b8082018082111561040b5761040b610a7556fea264697066735822122089a89e3de0e1a6860c2ab108afd7fc7c04efd8d8088a74b2b9e3bfb3813ad91964736f6c63430008110033",
  "devdoc": {
    "author": "ntourne",
    "kind": "dev",
    "methods": {},
    "version": 1
  },
  "userdoc": {
    "kind": "user",
    "methods": {},
    "notice": "A smart contract for an ERC20 token",
    "version": 1
  },
  "storageLayout": {
    "storage": [
      {
        "astId": 74,
        "contract": "contracts/MyToken.sol:MyToken",
        "label": "name",
        "offset": 0,
        "slot": "0",
        "type": "t_string_storage"
      },
      {
        "astId": 76,
        "contract": "contracts/MyToken.sol:MyToken",
        "label": "symbol",
        "offset": 0,
        "slot": "1",
        "type": "t_string_storage"
      },
      {
        "astId": 78,
        "contract": "contracts/MyToken.sol:MyToken",
        "label": "decimals",
        "offset": 0,
        "slot": "2",
        "type": "t_uint8"
      },
      {
        "astId": 80,
        "contract": "contracts/MyToken.sol:MyToken",
        "label": "_totalSupply",
        "offset": 0,
        "slot": "3",
        "type": "t_uint256"
      },
      {
        "astId": 82,
        "contract": "contracts/MyToken.sol:MyToken",
        "label": "mintingFee",
        "offset": 0,
        "slot": "4",
        "type": "t_uint256"
      },
      {
        "astId": 84,
        "contract": "contracts/MyToken.sol:MyToken",
        "label": "mintAmount",
        "offset": 0,
        "slot": "5",
        "type": "t_uint256"
      },
      {
        "astId": 86,
        "contract": "contracts/MyToken.sol:MyToken",
        "label": "owner",
        "offset": 0,
        "slot": "6",
        "type": "t_address"
      },
      {
        "astId": 90,
        "contract": "contracts/MyToken.sol:MyToken",
        "label": "_balances",
        "offset": 0,
        "slot": "7",
        "type": "t_mapping(t_address,t_uint256)"
      },
      {
        "astId": 96,
        "contract": "contracts/MyToken.sol:MyToken",
        "label": "_allowances",
        "offset": 0,
        "slot": "8",
        "type": "t_mapping(t_address,t_mapping(t_address,t_uint256))"
      }
    ],
    "types": {
      "t_address": {
        "encoding": "inplace",
        "label": "address",
        "numberOfBytes": "20"
      },
      "t_mapping(t_address,t_mapping(t_address,t_uint256))": {
        "encoding": "mapping",
        "key": "t_address",
        "label": "mapping(address => mapping(address => uint256))",
        "numberOfBytes": "32",
        "value": "t_mapping(t_address,t_uint256)"
      },
      "t_mapping(t_address,t_uint256)": {
        "encoding": "mapping",
        "key": "t_address",
        "label": "mapping(address => uint256)",
        "numberOfBytes": "32",
        "value": "t_uint256"
      },
      "t_string_storage": {
        "encoding": "bytes",
        "label": "string",
        "numberOfBytes": "32"
      },
      "t_uint256": {
        "encoding": "inplace",
        "label": "uint256",
        "numberOfBytes": "32"
      },
      "t_uint8": {
        "encoding": "inplace",
        "label": "uint8",
        "numberOfBytes": "1"
      }
    }
  }
}